:03000000020800F3
:0C080000787FE4F6D8FD75810A020847F5
:0308E30001080504
:1008BF00E4F509F50A050AE50A70020509B4B8F569
:0608CF00E509B40BF02264
:10088C002090171208BFD3E50864809480400BD3E6
:10089C00E508648094855002150820910EC3E50884
:1008AC006480948550051208BF05081208D51208FB
:0308BC00BF80CD2D
:0E08D500E5087005D2A0C2A122C2A0D2A122C5
:10080C0002088CE493A3F8E493A34003F68001F26E
:10081C0008DFF48029E493A3F85407240CC8C333ED
:10082C00C4540F4420C8834004F456800146F6DFBC
:10083C00E4800B01020408102040809008E3E47E61
:10084C00019360BCA3FF543F30E509541FFEE493B1
:10085C00A360010ECF54C025E060A840B8E493A378
:10086C00FAE493A3F8E493A3C8C582C8CAC583CAA3
:10087C00F0A3C8C582C8CAC583CADFE9DEE780BE5B
:0108E6000011
:00000001FF
