:03000000020800F3
:0C080000787FE4F6D8FD758128020847D7
:100917000108050F097061726B696E672066756C57
:100927006C0000000F187061726B696E6720667249
:050937006565000000F1
:08095B00C2A3D2A47F647E0058
:0B096300EF1FAC0670011E4C70F62266
:10088C0012093D2090127F507EC3120963D3E508F4
:10089C0064809480400215082091127F507EC31210
:1008AC000963C3E50864809485500205087F011232
:1008BC00096E7FD07E07120963E50864056026E4A3
:1008CC00F527F528C3E528940DE52764809480501E
:1008DC00B274182528F8E6FF12097E0528E5287061
:1008EC00E3052780DFE4F527F528C3E528940DE51B
:1008FC002764809480508C74092528F8E6FF12092F
:0B090C007E0528E52870E3052780DF4A
:10093D007F3812096E7F0C12096E7F0612096E7FC9
:0E094D001012096E7F0112096E7F8002096E82
:10096E008FB0C2A212095BC2A47F887E13020963F4
:10097E008FB0D2A212095BC2A47F887E13020963D4
:10080C0002088CE493A3F8E493A34003F68001F26E
:10081C0008DFF48029E493A3F85407240CC8C333ED
:10082C00C4540F4420C8834004F456800146F6DFBC
:10083C00E4800B0102040810204080900917E47E2C
:10084C00019360BCA3FF543F30E509541FFEE493B1
:10085C00A360010ECF54C025E060A840B8E493A378
:10086C00FAE493A3F8E493A3C8C582C8CAC583CAA3
:10087C00F0A3C8C582C8CAC583CADFE9DEE780BE5B
:01093C0000BA
:00000001FF
