:030000000208EE05
:0C08EE00787FE4F6D8FD75810A0208004E
:10086A0020202057656C636F6D6520546F2020200F
:10087A000020454D424554524F4E4943582E434F4E
:02088A004D001F
:10088C007F381208D27F0E1208D27F011208D27F55
:0E089C00061208D27F0C1208D27F800208D20A
:0E08D2008FA0C280C281D2821208C3C28222CD
:0E08E0008FA0D280C281D2821208C3C28222AF
:100845008B088A09890AAB08AA09A90A1208AA60AD
:1008550013050AE50A7002050914F91208AAFF1220
:0508650008E080E22222
:0E08C300E4FFFE0FBF00010EBE17F8BF71F577
:0108D1002204
:1008000012088C7F801208D27BFF7A08796A12085E
:10081000457FC01208D27BFF7A08797B120845E435
:10082000FFFE0FBF00010EBE75F8BF30F57F01124D
:1008300008D2E4FEFFC3EF9430EE947550C50FBFAD
:0508400000010E80F034
:1008AA00BB010689828A83E0225002E722BBFE024C
:0908BA00E32289828A83E493227F
:00000001FF
